{
  "contractName": "Charity",
  "abi": [
    {
      "constant": true,
      "inputs": [],
      "name": "creator",
      "outputs": [
        {
          "name": "",
          "type": "address"
        }
      ],
      "payable": false,
      "stateMutability": "view",
      "type": "function"
    },
    {
      "constant": true,
      "inputs": [],
      "name": "name",
      "outputs": [
        {
          "name": "",
          "type": "string"
        }
      ],
      "payable": false,
      "stateMutability": "view",
      "type": "function"
    },
    {
      "constant": true,
      "inputs": [],
      "name": "endTime",
      "outputs": [
        {
          "name": "",
          "type": "uint256"
        }
      ],
      "payable": false,
      "stateMutability": "view",
      "type": "function"
    },
    {
      "constant": true,
      "inputs": [
        {
          "name": "",
          "type": "uint256"
        }
      ],
      "name": "votingOptionVotes",
      "outputs": [
        {
          "name": "",
          "type": "uint256"
        }
      ],
      "payable": false,
      "stateMutability": "view",
      "type": "function"
    },
    {
      "constant": true,
      "inputs": [],
      "name": "votingOptionsCount",
      "outputs": [
        {
          "name": "",
          "type": "uint256"
        }
      ],
      "payable": false,
      "stateMutability": "view",
      "type": "function"
    },
    {
      "constant": true,
      "inputs": [
        {
          "name": "",
          "type": "uint256"
        }
      ],
      "name": "votingOptionAddresses",
      "outputs": [
        {
          "name": "",
          "type": "address"
        }
      ],
      "payable": false,
      "stateMutability": "view",
      "type": "function"
    },
    {
      "constant": true,
      "inputs": [
        {
          "name": "",
          "type": "address"
        }
      ],
      "name": "donations",
      "outputs": [
        {
          "name": "",
          "type": "uint256"
        }
      ],
      "payable": false,
      "stateMutability": "view",
      "type": "function"
    },
    {
      "constant": true,
      "inputs": [
        {
          "name": "",
          "type": "uint256"
        }
      ],
      "name": "votingOptions",
      "outputs": [
        {
          "name": "",
          "type": "string"
        }
      ],
      "payable": false,
      "stateMutability": "view",
      "type": "function"
    },
    {
      "inputs": [],
      "payable": false,
      "stateMutability": "nonpayable",
      "type": "constructor"
    },
    {
      "anonymous": false,
      "inputs": [
        {
          "indexed": false,
          "name": "creator",
          "type": "address"
        }
      ],
      "name": "charityCreated",
      "type": "event"
    },
    {
      "anonymous": false,
      "inputs": [
        {
          "indexed": false,
          "name": "option",
          "type": "string"
        },
        {
          "indexed": false,
          "name": "optionAddress",
          "type": "address"
        }
      ],
      "name": "optionAdded",
      "type": "event"
    },
    {
      "anonymous": false,
      "inputs": [
        {
          "indexed": false,
          "name": "donor",
          "type": "address"
        },
        {
          "indexed": false,
          "name": "donationAmount",
          "type": "uint256"
        }
      ],
      "name": "donated",
      "type": "event"
    },
    {
      "constant": false,
      "inputs": [
        {
          "name": "option",
          "type": "string"
        },
        {
          "name": "optionAddress",
          "type": "address"
        }
      ],
      "name": "addVoteOption",
      "outputs": [],
      "payable": false,
      "stateMutability": "nonpayable",
      "type": "function"
    },
    {
      "constant": false,
      "inputs": [
        {
          "name": "duration",
          "type": "uint256"
        }
      ],
      "name": "startVoting",
      "outputs": [],
      "payable": false,
      "stateMutability": "nonpayable",
      "type": "function"
    },
    {
      "constant": false,
      "inputs": [
        {
          "name": "option",
          "type": "uint256"
        }
      ],
      "name": "vote",
      "outputs": [],
      "payable": false,
      "stateMutability": "nonpayable",
      "type": "function"
    },
    {
      "constant": false,
      "inputs": [],
      "name": "disperse",
      "outputs": [
        {
          "name": "",
          "type": "bool"
        }
      ],
      "payable": false,
      "stateMutability": "nonpayable",
      "type": "function"
    },
    {
      "constant": false,
      "inputs": [],
      "name": "donate",
      "outputs": [],
      "payable": true,
      "stateMutability": "payable",
      "type": "function"
    },
    {
      "constant": true,
      "inputs": [],
      "name": "getBalance",
      "outputs": [
        {
          "name": "",
          "type": "uint256"
        }
      ],
      "payable": false,
      "stateMutability": "view",
      "type": "function"
    },
    {
      "constant": true,
      "inputs": [
        {
          "name": "index",
          "type": "uint256"
        }
      ],
      "name": "getVotingOption",
      "outputs": [
        {
          "name": "",
          "type": "string"
        },
        {
          "name": "",
          "type": "address"
        }
      ],
      "payable": false,
      "stateMutability": "view",
      "type": "function"
    }
  ],
  "bytecode": "0x608060405234801561001057600080fd5b506040805190810160405280600c81526020017f54657374204368617269747900000000000000000000000000000000000000008152506000908051906020019061005c92919061014f565b5033600160006101000a81548173ffffffffffffffffffffffffffffffffffffffff021916908373ffffffffffffffffffffffffffffffffffffffff1602179055507f41be4103c09e31b3eeef4eb7f2902dd728c525a6ea3f683e88b10d1c484a0928600160009054906101000a900473ffffffffffffffffffffffffffffffffffffffff16604051808273ffffffffffffffffffffffffffffffffffffffff1673ffffffffffffffffffffffffffffffffffffffff16815260200191505060405180910390a17fffffffffffffffffffffffffffffffffffffffffffffffffffffffffffffffff6007819055506101f4565b828054600181600116156101000203166002900490600052602060002090601f016020900481019282601f1061019057805160ff19168380011785556101be565b828001600101855582156101be579182015b828111156101bd5782518255916020019190600101906101a2565b5b5090506101cb91906101cf565b5090565b6101f191905b808211156101ed5760008160009055506001016101d5565b5090565b90565b61108880620002046000396000f3006080604052600436106100db576000357c0100000000000000000000000000000000000000000000000000000000900463ffffffff1680630121b93f146100e057806302d05d3f1461010d57806306fdde031461016457806312065fe0146101f45780631f8a3b741461021f5780633197cbb6146102f85780633d2f5bda146103235780634e2b542f14610350578063731673fa146103d957806388b6ff9c1461041a5780639723de961461044957806398fe508214610474578063cc6cb19a146104e1578063dff67f6b14610538578063ed88c68e146105de575b600080fd5b3480156100ec57600080fd5b5061010b600480360381019080803590602001909291905050506105e8565b005b34801561011957600080fd5b5061012261069c565b604051808273ffffffffffffffffffffffffffffffffffffffff1673ffffffffffffffffffffffffffffffffffffffff16815260200191505060405180910390f35b34801561017057600080fd5b506101796106c2565b6040518080602001828103825283818151815260200191508051906020019080838360005b838110156101b957808201518184015260208101905061019e565b50505050905090810190601f1680156101e65780820380516001836020036101000a031916815260200191505b509250505060405180910390f35b34801561020057600080fd5b50610209610760565b6040518082815260200191505060405180910390f35b34801561022b57600080fd5b5061024a6004803603810190808035906020019092919050505061077f565b60405180806020018373ffffffffffffffffffffffffffffffffffffffff1673ffffffffffffffffffffffffffffffffffffffff168152602001828103825284818151815260200191508051906020019080838360005b838110156102bc5780820151818401526020810190506102a1565b50505050905090810190601f1680156102e95780820380516001836020036101000a031916815260200191505b50935050505060405180910390f35b34801561030457600080fd5b5061030d6108cb565b6040518082815260200191505060405180910390f35b34801561032f57600080fd5b5061034e600480360381019080803590602001909291905050506108d1565b005b34801561035c57600080fd5b506103d7600480360381019080803590602001908201803590602001908080601f0160208091040260200160405190810160405280939291908181526020018383808284378201915050505050509192919290803573ffffffffffffffffffffffffffffffffffffffff169060200190929190505050610941565b005b3480156103e557600080fd5b5061040460048036038101908080359060200190929190505050610c26565b6040518082815260200191505060405180910390f35b34801561042657600080fd5b5061042f610c49565b604051808215151515815260200191505060405180910390f35b34801561045557600080fd5b5061045e610de6565b6040518082815260200191505060405180910390f35b34801561048057600080fd5b5061049f60048036038101908080359060200190929190505050610dec565b604051808273ffffffffffffffffffffffffffffffffffffffff1673ffffffffffffffffffffffffffffffffffffffff16815260200191505060405180910390f35b3480156104ed57600080fd5b50610522600480360381019080803573ffffffffffffffffffffffffffffffffffffffff169060200190929190505050610e2a565b6040518082815260200191505060405180910390f35b34801561054457600080fd5b5061056360048036038101908080359060200190929190505050610e42565b6040518080602001828103825283818151815260200191508051906020019080838360005b838110156105a3578082015181840152602081019050610588565b50505050905090810190601f1680156105d05780820380516001836020036101000a031916815260200191505b509250505060405180910390f35b6105e6610efd565b005b6000600260003373ffffffffffffffffffffffffffffffffffffffff1673ffffffffffffffffffffffffffffffffffffffff1681526020019081526020016000205490506000600260003373ffffffffffffffffffffffffffffffffffffffff1673ffffffffffffffffffffffffffffffffffffffff168152602001908152602001600020819055508060058381548110151561068157fe5b90600052602060002001600082825401925050819055505050565b600160009054906101000a900473ffffffffffffffffffffffffffffffffffffffff1681565b60008054600181600116156101000203166002900480601f0160208091040260200160405190810160405280929190818152602001828054600181600116156101000203166002900480156107585780601f1061072d57610100808354040283529160200191610758565b820191906000526020600020905b81548152906001019060200180831161073b57829003601f168201915b505050505081565b60003073ffffffffffffffffffffffffffffffffffffffff1631905090565b606060006006548310156108855760038381548110151561079c57fe5b906000526020600020016004848154811015156107b557fe5b9060005260206000200160009054906101000a900473ffffffffffffffffffffffffffffffffffffffff16818054600181600116156101000203166002900480601f0160208091040260200160405190810160405280929190818152602001828054600181600116156101000203166002900480156108755780601f1061084a57610100808354040283529160200191610875565b820191906000526020600020905b81548152906001019060200180831161085857829003601f168201915b50505050509150915091506108c6565b60006040805190810160405280600481526020017f6e756c6c0000000000000000000000000000000000000000000000000000000081525090809050915091505b915091565b60075481565b600160009054906101000a900473ffffffffffffffffffffffffffffffffffffffff1673ffffffffffffffffffffffffffffffffffffffff163373ffffffffffffffffffffffffffffffffffffffff1614801561092f575060075442105b1561093e578042016007819055505b50565b600160009054906101000a900473ffffffffffffffffffffffffffffffffffffffff1673ffffffffffffffffffffffffffffffffffffffff163373ffffffffffffffffffffffffffffffffffffffff1614801561099f575060075442105b15610c2257600654600380549050111515610a945760038060018154018082558091505090600182039060005260206000200160006020604051908101604052806000815250909190915090805190602001906109fd929190610fb7565b50506004600090806001815401808255809150509060018203906000526020600020016000909192909190916101000a81548173ffffffffffffffffffffffffffffffffffffffff021916908373ffffffffffffffffffffffffffffffffffffffff160217905550506005600090806001815401808255809150509060018203906000526020600020016000909192909190915055505b816003600654815481101515610aa657fe5b906000526020600020019080519060200190610ac3929190610fb7565b50806004600654815481101515610ad657fe5b9060005260206000200160006101000a81548173ffffffffffffffffffffffffffffffffffffffff021916908373ffffffffffffffffffffffffffffffffffffffff16021790555060006005600654815481101515610b3157fe5b90600052602060002001819055506006600081548092919060010191905055507f6b1f0c0d099e4d2afb6c638b709be2464bef09a41959fd45a4174d562e606230828260405180806020018373ffffffffffffffffffffffffffffffffffffffff1673ffffffffffffffffffffffffffffffffffffffff168152602001828103825284818151815260200191508051906020019080838360005b83811015610be6578082015181840152602081019050610bcb565b50505050905090810190601f168015610c135780820380516001836020036101000a031916815260200191505b50935050505060405180910390a15b5050565b600581815481101515610c3557fe5b906000526020600020016000915090505481565b60008060008060075442101515610ddb57600092507fffffffffffffffffffffffffffffffffffffffffffffffffffffffffffffffff9150600090505b600654811015610cde5782600582815481101515610ca057fe5b90600052602060002001541115610cd157809150600581815481101515610cc357fe5b906000526020600020015492505b8080600101915050610c86565b60006006819055507fffffffffffffffffffffffffffffffffffffffffffffffffffffffffffffffff6007819055507fffffffffffffffffffffffffffffffffffffffffffffffffffffffffffffffff821415610d3a57610dd2565b600482815481101515610d4957fe5b9060005260206000200160009054906101000a900473ffffffffffffffffffffffffffffffffffffffff1673ffffffffffffffffffffffffffffffffffffffff166108fc3073ffffffffffffffffffffffffffffffffffffffff16319081150290604051600060405180830381858888f19350505050158015610dd0573d6000803e3d6000fd5b505b60019350610de0565b600093505b50505090565b60065481565b600481815481101515610dfb57fe5b906000526020600020016000915054906101000a900473ffffffffffffffffffffffffffffffffffffffff1681565b60026020528060005260406000206000915090505481565b600381815481101515610e5157fe5b906000526020600020016000915090508054600181600116156101000203166002900480601f016020809104026020016040519081016040528092919081815260200182805460018160011615610100020316600290048015610ef55780601f10610eca57610100808354040283529160200191610ef5565b820191906000526020600020905b815481529060010190602001808311610ed857829003601f168201915b505050505081565b34600260003373ffffffffffffffffffffffffffffffffffffffff1673ffffffffffffffffffffffffffffffffffffffff168152602001908152602001600020600082825401925050819055507f3ceb4bd0eed17b1cc8ff27bee9c294511535fb3082d5c058a3eada19d2e8e7563334604051808373ffffffffffffffffffffffffffffffffffffffff1673ffffffffffffffffffffffffffffffffffffffff1681526020018281526020019250505060405180910390a1565b828054600181600116156101000203166002900490600052602060002090601f016020900481019282601f10610ff857805160ff1916838001178555611026565b82800160010185558215611026579182015b8281111561102557825182559160200191906001019061100a565b5b5090506110339190611037565b5090565b61105991905b8082111561105557600081600090555060010161103d565b5090565b905600a165627a7a72305820955866771fa374c7c731959caf12006a0ca44302c3ea0f283d016cd971c4b3c10029",
  "source": "pragma solidity ^0.4.18;\n\ncontract Charity {\n\n    string public name;\n    address public creator; // TODO extension: multiple creators/admins?\n    mapping (address => uint) public donations; //TODO make it easier to see everyone's donations\n    string[] public votingOptions;\n    address[] public votingOptionAddresses;\n    uint[] public votingOptionVotes;\n    uint public votingOptionsCount;\n\n    uint public endTime;\n\n    event charityCreated(address creator);\n    event optionAdded(string option, address optionAddress);\n    event donated(address donor, uint donationAmount);\n\n    // Constructor\n    function Charity() public {\n        name = \"Test Charity\";\n        creator = msg.sender;\n        emit charityCreated(creator);\n\n        endTime = 2**256 - 1;\n    }\n\n    // The creator can add voting options. Must be done one at a time due to limitations in Solidity (?)\n    function addVoteOption(string option, address optionAddress) public {\n        if (msg.sender == creator && now < endTime) {\n            if (votingOptions.length <= votingOptionsCount) {\n                votingOptions.push(\"\");\n                votingOptionAddresses.push(0);\n                votingOptionVotes.push(0);\n            }\n            votingOptions[votingOptionsCount] = option;\n            votingOptionAddresses[votingOptionsCount] = optionAddress;\n            votingOptionVotes[votingOptionsCount] = 0;\n            votingOptionsCount++;\n            emit optionAdded(option, optionAddress);\n        }\n    }\n\n    // Locks in the options and allows donors to start voting\n    // @param duration: time that voting will be allowed, in seconds TODO confirm it's seconds\n    function startVoting(uint duration) {\n        if (msg.sender == creator && now < endTime) {\n            endTime = now + duration;\n        }\n    }\n\n\n    // Allows one to vote for one of the choices, which will be weighted\n    function vote(uint option) public {\n        uint temp = donations[msg.sender];\n        donations[msg.sender] = 0;\n        votingOptionVotes[option] += temp;\n    }\n\n    // Can be called by anyone after the current voting period ends, to donate to the voted for cause\n    function disperse() public returns (bool){\n        // https://ethereum.stackexchange.com/questions/3373/how-to-clear-large-arrays-without-blowing-the-gas-limit\n        if (now >= endTime) {\n            uint maxVotes = 0;\n            uint maxIndex = 2 ** 256 - 1;\n            for (uint i = 0; i < votingOptionsCount; i++) {\n                if (votingOptionVotes[i] > maxVotes) {\n                    maxIndex = i;\n                    maxVotes = votingOptionVotes[i];\n                }\n            }\n            votingOptionsCount = 0;\n            endTime = 2 ** 256 - 1;\n            if (maxIndex == 2 ** 256 - 1) {\n                // No one voted, TODO handle\n            } else {\n                votingOptionAddresses[maxIndex].transfer(address(this).balance);\n            }\n            return true;\n        }\n        return false;\n    }\n\n    // Allows any individual to donate ethereum to this charity.\n    function donate() public payable {\n        donations[msg.sender] += msg.value;\n        emit donated(msg.sender, msg.value);\n    }\n\n    function getBalance () public constant returns (uint) {\n        return address(this).balance;\n    }\n\n    function getVotingOption (uint index) public constant returns (string, address) {\n        if (index < votingOptionsCount) {\n            return (votingOptions[index], votingOptionAddresses[index]);\n        } else {\n            return (\"null\", 0);\n        }\n    }\n}\n",
  "sourcePath": "/Users/BaiXueshan/Desktop/Blockchains-Project/contracts/Charity.sol",
  "compiler": {
    "name": "solc",
    "version": "0.4.23+commit.124ca40d.Emscripten.clang"
  },
  "schemaVersion": "2.0.0",
  "updatedAt": "2018-04-22T23:31:47.856Z"
}