{
  "contractName": "Charity",
  "abi": [
    {
      "constant": true,
      "inputs": [],
      "name": "creator",
      "outputs": [
        {
          "name": "",
          "type": "address"
        }
      ],
      "payable": false,
      "stateMutability": "view",
      "type": "function"
    },
    {
      "constant": true,
      "inputs": [],
      "name": "name",
      "outputs": [
        {
          "name": "",
          "type": "string"
        }
      ],
      "payable": false,
      "stateMutability": "view",
      "type": "function"
    },
    {
      "constant": true,
      "inputs": [],
      "name": "endTime",
      "outputs": [
        {
          "name": "",
          "type": "uint256"
        }
      ],
      "payable": false,
      "stateMutability": "view",
      "type": "function"
    },
    {
      "constant": true,
      "inputs": [
        {
          "name": "",
          "type": "uint256"
        }
      ],
      "name": "votingOptionVotes",
      "outputs": [
        {
          "name": "",
          "type": "uint256"
        }
      ],
      "payable": false,
      "stateMutability": "view",
      "type": "function"
    },
    {
      "constant": true,
      "inputs": [],
      "name": "votingOptionsCount",
      "outputs": [
        {
          "name": "",
          "type": "uint256"
        }
      ],
      "payable": false,
      "stateMutability": "view",
      "type": "function"
    },
    {
      "constant": true,
      "inputs": [
        {
          "name": "",
          "type": "uint256"
        }
      ],
      "name": "votingOptionAddresses",
      "outputs": [
        {
          "name": "",
          "type": "address"
        }
      ],
      "payable": false,
      "stateMutability": "view",
      "type": "function"
    },
    {
      "constant": true,
      "inputs": [
        {
          "name": "",
          "type": "address"
        }
      ],
      "name": "donations",
      "outputs": [
        {
          "name": "",
          "type": "uint256"
        }
      ],
      "payable": false,
      "stateMutability": "view",
      "type": "function"
    },
    {
      "constant": true,
      "inputs": [
        {
          "name": "",
          "type": "uint256"
        }
      ],
      "name": "votingOptions",
      "outputs": [
        {
          "name": "",
          "type": "string"
        }
      ],
      "payable": false,
      "stateMutability": "view",
      "type": "function"
    },
    {
      "inputs": [
        {
          "name": "_name",
          "type": "string"
        }
      ],
      "payable": false,
      "stateMutability": "nonpayable",
      "type": "constructor"
    },
    {
      "anonymous": false,
      "inputs": [
        {
          "indexed": false,
          "name": "option",
          "type": "string"
        },
        {
          "indexed": false,
          "name": "optionAddress",
          "type": "address"
        }
      ],
      "name": "optionAdded",
      "type": "event"
    },
    {
      "anonymous": false,
      "inputs": [
        {
          "indexed": false,
          "name": "donor",
          "type": "address"
        },
        {
          "indexed": false,
          "name": "donationAmount",
          "type": "uint256"
        }
      ],
      "name": "donated",
      "type": "event"
    },
    {
      "constant": false,
      "inputs": [
        {
          "name": "option",
          "type": "string"
        },
        {
          "name": "optionAddress",
          "type": "address"
        }
      ],
      "name": "addVoteOption",
      "outputs": [],
      "payable": false,
      "stateMutability": "nonpayable",
      "type": "function"
    },
    {
      "constant": false,
      "inputs": [
        {
          "name": "duration",
          "type": "uint256"
        }
      ],
      "name": "startVoting",
      "outputs": [],
      "payable": false,
      "stateMutability": "nonpayable",
      "type": "function"
    },
    {
      "constant": false,
      "inputs": [
        {
          "name": "option",
          "type": "uint256"
        }
      ],
      "name": "vote",
      "outputs": [],
      "payable": false,
      "stateMutability": "nonpayable",
      "type": "function"
    },
    {
      "constant": false,
      "inputs": [],
      "name": "disperse",
      "outputs": [
        {
          "name": "",
          "type": "bool"
        }
      ],
      "payable": false,
      "stateMutability": "nonpayable",
      "type": "function"
    },
    {
      "constant": false,
      "inputs": [],
      "name": "donate",
      "outputs": [],
      "payable": true,
      "stateMutability": "payable",
      "type": "function"
    },
    {
      "constant": true,
      "inputs": [],
      "name": "getBalance",
      "outputs": [
        {
          "name": "",
          "type": "uint256"
        }
      ],
      "payable": false,
      "stateMutability": "view",
      "type": "function"
    },
    {
      "constant": true,
      "inputs": [
        {
          "name": "index",
          "type": "uint256"
        }
      ],
      "name": "getVotingOption",
      "outputs": [
        {
          "name": "",
          "type": "string"
        },
        {
          "name": "",
          "type": "address"
        }
      ],
      "payable": false,
      "stateMutability": "view",
      "type": "function"
    }
  ],
  "bytecode": "0x606060405234156200001057600080fd5b604051620012ae380380620012ae83398101604052808051820191905050806000908051906020019062000046929190620000b6565b5033600160006101000a81548173ffffffffffffffffffffffffffffffffffffffff021916908373ffffffffffffffffffffffffffffffffffffffff1602179055507fffffffffffffffffffffffffffffffffffffffffffffffffffffffffffffffff6007819055505062000165565b828054600181600116156101000203166002900490600052602060002090601f016020900481019282601f10620000f957805160ff19168380011785556200012a565b828001600101855582156200012a579182015b82811115620001295782518255916020019190600101906200010c565b5b5090506200013991906200013d565b5090565b6200016291905b808211156200015e57600081600090555060010162000144565b5090565b90565b61113980620001756000396000f3006060604052600436106100db576000357c0100000000000000000000000000000000000000000000000000000000900463ffffffff1680630121b93f146100e057806302d05d3f1461010357806306fdde031461015857806312065fe0146101e65780631f8a3b741461020f5780633197cbb6146102de5780633d2f5bda146103075780634e2b542f1461032a578063731673fa146103a657806388b6ff9c146103dd5780639723de961461040a57806398fe508214610433578063cc6cb19a14610496578063dff67f6b146104e3578063ed88c68e1461057f575b600080fd5b34156100eb57600080fd5b6101016004808035906020019091905050610589565b005b341561010e57600080fd5b61011661063e565b604051808273ffffffffffffffffffffffffffffffffffffffff1673ffffffffffffffffffffffffffffffffffffffff16815260200191505060405180910390f35b341561016357600080fd5b61016b610664565b6040518080602001828103825283818151815260200191508051906020019080838360005b838110156101ab578082015181840152602081019050610190565b50505050905090810190601f1680156101d85780820380516001836020036101000a031916815260200191505b509250505060405180910390f35b34156101f157600080fd5b6101f9610702565b6040518082815260200191505060405180910390f35b341561021a57600080fd5b6102306004808035906020019091905050610721565b60405180806020018373ffffffffffffffffffffffffffffffffffffffff1673ffffffffffffffffffffffffffffffffffffffff168152602001828103825284818151815260200191508051906020019080838360005b838110156102a2578082015181840152602081019050610287565b50505050905090810190601f1680156102cf5780820380516001836020036101000a031916815260200191505b50935050505060405180910390f35b34156102e957600080fd5b6102f1610875565b6040518082815260200191505060405180910390f35b341561031257600080fd5b610328600480803590602001909190505061087b565b005b341561033557600080fd5b6103a4600480803590602001908201803590602001908080601f0160208091040260200160405190810160405280939291908181526020018383808284378201915050505050509190803573ffffffffffffffffffffffffffffffffffffffff169060200190919050506108eb565b005b34156103b157600080fd5b6103c76004808035906020019091905050610bcc565b6040518082815260200191505060405180910390f35b34156103e857600080fd5b6103f0610bf0565b604051808215151515815260200191505060405180910390f35b341561041557600080fd5b61041d610d89565b6040518082815260200191505060405180910390f35b341561043e57600080fd5b6104546004808035906020019091905050610d8f565b604051808273ffffffffffffffffffffffffffffffffffffffff1673ffffffffffffffffffffffffffffffffffffffff16815260200191505060405180910390f35b34156104a157600080fd5b6104cd600480803573ffffffffffffffffffffffffffffffffffffffff16906020019091905050610dce565b6040518082815260200191505060405180910390f35b34156104ee57600080fd5b6105046004808035906020019091905050610de6565b6040518080602001828103825283818151815260200191508051906020019080838360005b83811015610544578082015181840152602081019050610529565b50505050905090810190601f1680156105715780820380516001836020036101000a031916815260200191505b509250505060405180910390f35b610587610ea2565b005b6000600260003373ffffffffffffffffffffffffffffffffffffffff1673ffffffffffffffffffffffffffffffffffffffff1681526020019081526020016000205490506000600260003373ffffffffffffffffffffffffffffffffffffffff1673ffffffffffffffffffffffffffffffffffffffff168152602001908152602001600020819055508060058381548110151561062257fe5b9060005260206000209001600082825401925050819055505050565b600160009054906101000a900473ffffffffffffffffffffffffffffffffffffffff1681565b60008054600181600116156101000203166002900480601f0160208091040260200160405190810160405280929190818152602001828054600181600116156101000203166002900480156106fa5780601f106106cf576101008083540402835291602001916106fa565b820191906000526020600020905b8154815290600101906020018083116106dd57829003601f168201915b505050505081565b60003073ffffffffffffffffffffffffffffffffffffffff1631905090565b610729610f5c565b600060065483101561082f5760038381548110151561074457fe5b906000526020600020900160048481548110151561075e57fe5b906000526020600020900160009054906101000a900473ffffffffffffffffffffffffffffffffffffffff16818054600181600116156101000203166002900480601f01602080910402602001604051908101604052809291908181526020018280546001816001161561010002031660029004801561081f5780601f106107f45761010080835404028352916020019161081f565b820191906000526020600020905b81548152906001019060200180831161080257829003601f168201915b5050505050915091509150610870565b60006040805190810160405280600481526020017f6e756c6c0000000000000000000000000000000000000000000000000000000081525090809050915091505b915091565b60075481565b600160009054906101000a900473ffffffffffffffffffffffffffffffffffffffff1673ffffffffffffffffffffffffffffffffffffffff163373ffffffffffffffffffffffffffffffffffffffff161480156108d9575060075442105b156108e8578042016007819055505b50565b600160009054906101000a900473ffffffffffffffffffffffffffffffffffffffff1673ffffffffffffffffffffffffffffffffffffffff163373ffffffffffffffffffffffffffffffffffffffff16148015610949575060075442105b15610bc857600654600380549050111515610a3757600380548060010182816109729190610f70565b916000526020600020900160006020604051908101604052806000815250909190915090805190602001906109a8929190610f9c565b5050600480548060010182816109be919061101c565b9160005260206000209001600080909190916101000a81548173ffffffffffffffffffffffffffffffffffffffff021916908373ffffffffffffffffffffffffffffffffffffffff1602179055505060058054806001018281610a219190611048565b9160005260206000209001600080909190915055505b816003600654815481101515610a4957fe5b90600052602060002090019080519060200190610a67929190610f9c565b50806004600654815481101515610a7a57fe5b906000526020600020900160006101000a81548173ffffffffffffffffffffffffffffffffffffffff021916908373ffffffffffffffffffffffffffffffffffffffff16021790555060006005600654815481101515610ad657fe5b9060005260206000209001819055506006600081548092919060010191905055507f6b1f0c0d099e4d2afb6c638b709be2464bef09a41959fd45a4174d562e606230828260405180806020018373ffffffffffffffffffffffffffffffffffffffff1673ffffffffffffffffffffffffffffffffffffffff168152602001828103825284818151815260200191508051906020019080838360005b83811015610b8c578082015181840152602081019050610b71565b50505050905090810190601f168015610bb95780820380516001836020036101000a031916815260200191505b50935050505060405180910390a15b5050565b600581815481101515610bdb57fe5b90600052602060002090016000915090505481565b60008060008060075442101515610d7e57600092507fffffffffffffffffffffffffffffffffffffffffffffffffffffffffffffffff9150600090505b600654811015610c875782600582815481101515610c4757fe5b9060005260206000209001541115610c7a57809150600581815481101515610c6b57fe5b90600052602060002090015492505b8080600101915050610c2d565b60006006819055507fffffffffffffffffffffffffffffffffffffffffffffffffffffffffffffffff6007819055507fffffffffffffffffffffffffffffffffffffffffffffffffffffffffffffffff821415610ce357610d75565b600482815481101515610cf257fe5b906000526020600020900160009054906101000a900473ffffffffffffffffffffffffffffffffffffffff1673ffffffffffffffffffffffffffffffffffffffff166108fc3073ffffffffffffffffffffffffffffffffffffffff16319081150290604051600060405180830381858888f193505050501515610d7457600080fd5b5b60019350610d83565b600093505b50505090565b60065481565b600481815481101515610d9e57fe5b90600052602060002090016000915054906101000a900473ffffffffffffffffffffffffffffffffffffffff1681565b60026020528060005260406000206000915090505481565b600381815481101515610df557fe5b90600052602060002090016000915090508054600181600116156101000203166002900480601f016020809104026020016040519081016040528092919081815260200182805460018160011615610100020316600290048015610e9a5780601f10610e6f57610100808354040283529160200191610e9a565b820191906000526020600020905b815481529060010190602001808311610e7d57829003601f168201915b505050505081565b34600260003373ffffffffffffffffffffffffffffffffffffffff1673ffffffffffffffffffffffffffffffffffffffff168152602001908152602001600020600082825401925050819055507f3ceb4bd0eed17b1cc8ff27bee9c294511535fb3082d5c058a3eada19d2e8e7563334604051808373ffffffffffffffffffffffffffffffffffffffff1673ffffffffffffffffffffffffffffffffffffffff1681526020018281526020019250505060405180910390a1565b602060405190810160405280600081525090565b815481835581811511610f9757818360005260206000209182019101610f969190611074565b5b505050565b828054600181600116156101000203166002900490600052602060002090601f016020900481019282601f10610fdd57805160ff191683800117855561100b565b8280016001018555821561100b579182015b8281111561100a578251825591602001919060010190610fef565b5b50905061101891906110a0565b5090565b8154818355818115116110435781836000526020600020918201910161104291906110a0565b5b505050565b81548183558181151161106f5781836000526020600020918201910161106e91906110a0565b5b505050565b61109d91905b80821115611099576000818161109091906110c5565b5060010161107a565b5090565b90565b6110c291905b808211156110be5760008160009055506001016110a6565b5090565b90565b50805460018160011615610100020316600290046000825580601f106110eb575061110a565b601f01602090049060005260206000209081019061110991906110a0565b5b505600a165627a7a72305820158d886eea7c0bb2b13271fd2219aaf7390fcc18ee8ede52f7a73bd3210f46fc0029",
  "source": "pragma solidity ^0.4.18;\n\ncontract Charity {\n\n    string public name;\n    address public creator; // TODO extension: multiple creators/admins?\n    mapping (address => uint) public donations; //TODO make it easier to see everyone's donations\n    string[] public votingOptions;\n    address[] public votingOptionAddresses;\n    uint[] public votingOptionVotes;\n    uint public votingOptionsCount;\n\n    uint public endTime;\n\n    event optionAdded(string option, address optionAddress);\n    event donated(address donor, uint donationAmount);\n\n    // Constructor\n    function Charity(string _name) public {\n        name = _name;\n        creator = msg.sender;\n\n        endTime = 2**256 - 1;\n    }\n\n    // The creator can add voting options. Must be done one at a time due to limitations in Solidity (?)\n    function addVoteOption(string option, address optionAddress) public {\n        if (msg.sender == creator && now < endTime) {\n            if (votingOptions.length <= votingOptionsCount) {\n                votingOptions.push(\"\");\n                votingOptionAddresses.push(0);\n                votingOptionVotes.push(0);\n            }\n            votingOptions[votingOptionsCount] = option;\n            votingOptionAddresses[votingOptionsCount] = optionAddress;\n            votingOptionVotes[votingOptionsCount] = 0;\n            votingOptionsCount++;\n            emit optionAdded(option, optionAddress);\n        }\n    }\n\n    // Locks in the options and allows donors to start voting\n    // @param duration: time that voting will be allowed, in seconds TODO confirm it's seconds\n    function startVoting(uint duration) {\n        if (msg.sender == creator && now < endTime) {\n            endTime = now + duration;\n        }\n    }\n\n\n    // Allows one to vote for one of the choices, which will be weighted\n    function vote(uint option) public {\n        uint temp = donations[msg.sender];\n        donations[msg.sender] = 0;\n        votingOptionVotes[option] += temp;\n    }\n\n    // Can be called by anyone after the current voting period ends, to donate to the voted for cause\n    function disperse() public returns (bool){\n        // https://ethereum.stackexchange.com/questions/3373/how-to-clear-large-arrays-without-blowing-the-gas-limit\n        if (now >= endTime) {\n            uint maxVotes = 0;\n            uint maxIndex = 2 ** 256 - 1;\n            for (uint i = 0; i < votingOptionsCount; i++) {\n                if (votingOptionVotes[i] > maxVotes) {\n                    maxIndex = i;\n                    maxVotes = votingOptionVotes[i];\n                }\n            }\n            votingOptionsCount = 0;\n            endTime = 2 ** 256 - 1;\n            if (maxIndex == 2 ** 256 - 1) {\n                // No one voted, TODO handle\n            } else {\n                votingOptionAddresses[maxIndex].transfer(address(this).balance);\n            }\n            return true;\n        }\n        return false;\n    }\n\n    // Allows any individual to donate ethereum to this charity.\n    function donate() public payable {\n        donations[msg.sender] += msg.value;\n        emit donated(msg.sender, msg.value);\n    }\n\n    function getBalance () public constant returns (uint) {\n        return address(this).balance;\n    }\n\n    function getVotingOption (uint index) public constant returns (string, address) {\n        if (index < votingOptionsCount) {\n            return (votingOptions[index], votingOptionAddresses[index]);\n        } else {\n            return (\"null\", 0);\n        }\n    }\n}\n",
  "sourcePath": "/Users/antilights/Documents/sp18/601.441/Blockchains-Project/contracts/Charity.sol",
  "compiler": {
    "name": "solc",
    "version": "0.4.21+commit.dfe3193c.Emscripten.clang"
  },
  "schemaVersion": "2.0.0",
  "updatedAt": "2018-04-22T20:55:07.335Z"
}